:020000040800F2
:1000000050040020750C00087D0C00087F0C0008CF
:10001000810C0008830C0008850C0008000000001B
:10002000000000000000000000000000870C000835
:10003000890C0008000000008B0C000899030008E0
:100040008F0C00088F0C00088F0C00088F0C000824
:100050008F0C00088F0C00088F0C00088F0C000814
:100060008F0C00088F0C00088F0C00088F0C000804
:100070008F0C00088F0C00088F0C00088F0C0008F4
:100080008F0C00088F0C00088F0C00088F0C0008E4
:100090008F0C00088F0C00088F0C00088F0C0008D4
:1000A0008F0C00088F0C00088F0C00088F0C0008C4
:1000B0008F0C00088F0C00088F0C00088F0C0008B4
:1000C0008F0C00088F0C00088F0C00088F0C0008A4
:1000D0008F0C0008450200088F0C00088F0C0008E8
:1000E0008F0C00088F0C00088F0C0008DFF80CD074
:1000F00000F0D2FD00480047A10300085004002092
:1001000010B586B004460121052000F00CFB01214A
:10011000880300F008FB02940020ADF80C00ADF855
:100120001000ADF80E00ADF814000C20ADF8120070
:1001300002A9CF4800F042FB012240F22551CC48F1
:1001400000F0B1FB0121CA4800F0A1FB4FF40070A0
:10015000ADF8000003208DF8020018208DF8030090
:100160006946C44800F09EF94FF48060ADF8000085
:1001700003208DF8020048208DF803006946BD4831
:1001800000F090F94FF4E06000F016FC25208DF8A7
:10019000040000208DF8060001208DF8070001A85A
:1001A00000F00FFC06B010BD30B502460B464FF60E
:1001B000FF70002110E0555C6840002409E000F069
:1001C000010525B140084AF20105684000E04008F9
:1001D000641C082CF3DB491C9942ECDB30BD70B584
:1001E00006460C46154612E000BF8021304600F05E
:1001F00091FB0028F9D014F8011B304600F081FB78
:1002000000BF4021304600F085FB0028F9D0281EB1
:10021000A5F10105E8D170BD70B504460D4600BFDB
:100220008021204600F076FB0028F9D029462046A0
:1002300000F067FB00BF4021204600F06BFB002868
:10024000F9D070BD10B540F22551894800F078FB17
:10025000002843D0864800F058FB874908700020EA
:10026000864908700DE0864984480078401C095C86
:100270008348824A1278815480480078401C7F4924
:1002800008707E4800780828EDDB7B4800787C49C0
:10029000087207217A48FFF787FF84B2784880798F
:1002A0007749C97900EB0120A04213D17448007846
:1002B00001280FD17248C0787149097918318840F6
:1002C0006F494979103188406D49897908318840F2
:1002D0006C4908602021664800F029FB0821644829
:1002E00000F018FB40B1624800F00FFB6249087053
:1002F00008215F4800F01BFB04215D4800F00AFB69
:1003000018B104215A4800F012FB0221584800F0AD
:1003100001FB18B10221564800F009FB01215448A5
:1003200000F0F8FA18B10121514800F000FB10BDAF
:1003300008B501211D2000F0F6F94FF48070ADF8EA
:10034000000010208DF8030003208DF8020069469C
:10035000484800F0A7F801214B4800F030F908BDEB
:1003600001B502E00098401E009000980028F9D1E5
:1003700008BD01B545490098086000BF43480068C2
:100380000028FBD108BD4148006820B13F48006803
:10039000401E3E490860704700B5FFF7F4FF00BDFE
:1003A000FFF7C6FF4FF41650FFF7AAFE3849B1F128
:1003B000807F01D301201DE021F07F40401E4FF0DF
:1003C000E022506150170F22002807DA13071D0E94
:1003D000304B00F00F04241F1D5503E013071C0EC3
:1003E0002D4B1C5400BF00204FF0E02290610720ED
:1003F0001061002008B100BFFEE74FF4FA70FFF76C
:10040000B8FF2FE01B480C30006840F48070194999
:100410000C31086001202149087003204870002039
:100420008870C87008710220487106211B48FFF7C8
:10043000BBFE1B4908800846007818498871184897
:1004400000880012C87108220948FFF7C8FE094851
:100450000C30006820F4807006490C3108603220AE
:10046000FFF787FFCEE710B500F083FB10BD00005B
:100470000038014000080140000000200100002079
:100480003800002004000020000230000800002096
:100490004019010018ED00E000E400E041000020F8
:1004A0000C0000202DE9F041024600250026002026
:1004B00000230024002791F803C00CF00F0591F8E9
:1004C00003C00CF0100CBCF1000F03D091F802C077
:1004D0004CEA050591F800C0BCF1000F31D014685A
:1004E00000202BE04FF0010C0CFA00F3B1F800C033
:1004F0000CEA03069E4220D183004FF00F0C0CFA49
:1005000003F7BC4305FA03FC4CEA040491F803C06A
:10051000BCF1280F06D14FF0010C0CFA00FCC2F818
:1005200014C00AE091F803C0BCF1480F05D14FF0A8
:10053000010C0CFA00FCC2F810C0401C0828D1D3F2
:100540001460B1F800C0BCF1FF0F34DD5468002026
:100550002EE000F1080C4FF0010808FA0CF3B1F896
:1005600000C00CEA03069E4221D183004FF00F0C1D
:100570000CFA03F7BC4305FA03FC4CEA040491F8B7
:1005800003C0BCF1280F05D100F1080C08FA0CF8E3
:10059000C2F8148091F803C0BCF1480F07D100F1F4
:1005A000080C4FF0010808FA0CF8C2F81080401C43
:1005B0000828CED35460BDE8F08101617047F0B5E2
:1005C0000A46002300240021002500F00046B6F171
:1005D000004F02D11C4EF16901E01B4E7168C0F35F
:1005E000034583B200F44016B6F5401F08D121F050
:1005F0007061154E766826F07066134F7E6012E0CB
:1006000000F48016B6F5801F06D1032606FA05F41D
:10061000A14341F0706106E0460D360103FA06F68B
:10062000B14341F0706122B1460D360103FA06F67E
:10063000314300F00046B6F1004F02D1024EF161A5
:1006400001E0014E7160F0BD0000014030B50021B5
:10065000002200240023524D6D6805F00C0121B1E9
:10066000042905D0082923D105E04E4D056022E07C
:100670004C4D05601FE04A4D6D6805F47012484D01
:100680006D6805F48034022505EB92421CB9464D95
:10069000554305600BE0424D6D6805F400351DB112
:1006A000414D5543056002E03E4D5543056002E073
:1006B0003C4D056000BF00BF394D6D6805F0F0018D
:1006C00009093A4D6B5C0568DD404560344D6D6845
:1006D00005F4E061090A354D6B5C4568DD408560D5
:1006E0002F4D6D6805F46051C90A304D6B5C45684B
:1006F000DD40C5602A4D6D6805F44041890B2C4DE5
:100700006B5CC568B5FBF3F5056130BD29B1244AC2
:1007100052690243224B5A6104E0214A52698243E2
:100720001F4B5A61704729B11D4A926902431C4B05
:100730009A6104E01A4A92698243194B9A617047A0
:1007400029B1174AD2690243154BDA6104E0144A11
:10075000D2698243124BDA61704729B1104AD268DC
:1007600002430F4BDA6004E00D4AD26882430C4B1F
:10077000DA60704729B10A4A12690243084B1A61CC
:1007800004E0074A12698243054B1A617047094920
:10079000086070470849C86470470149C8717047CC
:1007A0000010024000127A0000093D000E000020F7
:1007B0001E00002040044242000042422DE9F04762
:1007C00086B005460E460024A24600BFA14600277B
:1007D000B08900B100BF2F462C8A4CF6FF70044050
:1007E000F08804432C82AC894EF6F3100440B088A4
:1007F00031890843718908430443AC81AC8A4FF6C0
:10080000FF400440B0890443AC8201A8FFF71EFFFB
:100810006848874202D1DDF810A001E0DDF80CA0A5
:10082000A88900F4004040B10AEBCA0000EB0A10AE
:1008300031684900B0FBF1F807E00AEBCA0000EBB1
:100840000A1031688900B0FBF1F86420B8FBF0F0C1
:1008500004012009642101FB1089A88900F40040EB
:1008600040B1322000EBC900B0FBF1F000F007000E
:10087000044308E0322000EB09106421B0FBF1F0E2
:1008800000F00F0004432C8106B0BDE8F08721B1D1
:10089000828942F40052828104E082894DF6FF731E
:1008A0001A4082817047F0B50346002400260025D7
:1008B000002040F66A17B94200D100BF1846C1F3C4
:1008C000421401F01F06012707FA06F5012C01D199
:1008D0000C3004E0022C01D1103000E014301AB1C9
:1008E00007682F43076002E00768AF430760F0BD69
:1008F0001AB1838A0B43838202E0838A8B4383820B
:100900007047C1F308028280704701468888C0F3AF
:100910000800704702460020B1F5007F00D100BFFB
:1009200013880B400BB1012000E00020704701F458
:100930000072B2F5007F00D100BFCA430280704749
:1009400070B50246002400230025002040F66A16F8
:10095000B14200D100BFC1F3421501F01F030126CF
:1009600006FA03F3012D02D19689334006E0022DE9
:1009700002D1168A334001E0968A33400C120126D8
:1009800006FA04F41688344013B10CB1012000E0DB
:10099000002070BD10B50022002340F66A14A14269
:1009A00000D100BF0A1201249440A3B2DC430480AA
:1009B00010BD00000038014031490143314A116047
:1009C000704770B5002100230F22C47804B32D4C6A
:1009D000246804F4E064C4F5E064210AC1F104036E
:1009E000CA40447804FA03F1847814402143090191
:1009F000254C0678A155047804F01F050124AC406D
:100A000005786D11AD0005F1E025C5F8004109E05C
:100A1000047804F01F050124AC401C4D06787611C3
:100A200045F8264070BD1A4A0A400243154B1B1F69
:100A30001A60704739B1134A121D12680243114BF4
:100A40001B1D1A6006E00F4A121D126882430D4BEF
:100A50001B1D1A607047042808D14FF0E021096976
:100A600041F004014FF0E022116107E04FF0E02176
:100A7000096921F004014FF0E02211617047000084
:100A80000000FA050CED00E000E400E080E100E089
:100A900080FFFF1F0CB50020019000906C4800689B
:100AA00040F480306A49086000BF6948006800F47B
:100AB000003000900198401C0190009818B90198EE
:100AC000B0F5A06FF1D16248006800F4003010B1B9
:100AD0000120009001E0002000900098012843D1FF
:100AE0005C48006840F010005A49086008460068F9
:100AF00020F0030008600846006840F0020008602B
:100B00005348406852494860084640684860084673
:100B1000406840F4806048600846406820F47C10DB
:100B200048600846406840F4E8104860084600689D
:100B300040F08070086000BF4548006800F0007019
:100B40000028F9D04248406820F00300404948603E
:100B50000846406840F00200486000BF3C484068DA
:100B600000F00C000828F9D10CBD10B5FFF792FF7A
:100B700010BD10B53648006840F0010034490860E7
:100B800008464068344908403149486008460068D2
:100B9000324908402E4908600846006820F4802049
:100BA00008600846406820F4FE0048604FF41F00CB
:100BB0008860FFF7DAFF4FF000602949086010BD38
:100BC00010B5002100200022214B5B6803F00C01CE
:100BD00021B1042906D0082928D107E0214B224C55
:100BE000236027E01F4B204C236023E0184B5B68F9
:100BF00003F47010164B5B6803F48032022303EB9E
:100C0000904022B9194B4343174C23600DE0104B21
:100C10005B6803F4003323B1144B4343124C23604D
:100C200003E0104B4343104C236003E00D4B0E4C8C
:100C3000236000BF00BF064B5B68C3F303130C4C7B
:100C4000E15C094B1B68CB40074C236010BD0000E2
:100C500000100240002002400000FFF8FFFFF6FEF7
:100C600008ED00E000127A002400002000093D0099
:100C7000280000200648804706480047FEE7FEE7B8
:100C8000FEE7FEE7FEE7FEE7FEE7FEE7FEE7FEE73C
:100C9000730B0008ED000008064C074D06E0E06805
:100CA00040F0010394E8070098471034AC42F6D3B3
:100CB000FFF720FADC0C0008FC0C000802E008C872
:100CC000121F08C1002AFAD170477047002001E0C6
:100CD00001C1121F002AFBD170470000FC0C000864
:100CE0000000002038000000BC0C0008340D000893
:100CF0003800002018040000CC0C000800000000A0
:100D000000000000000000000000000000000102E0
:100D10000304010203040607080902040608000090
:100D200000A24A04000000000000000001020304C9
:040D300006070809A1
:04000005080000ED02
:00000001FF
