:020000040800F2
:10000000080A0020CD010008B9070008770700089A
:10001000B5070008C3030008E9120008000000004B
:10002000000000000000000000000000AD0C00080F
:100030004706000800000000750B0008990D000835
:10004000E7010008E7010008E7010008E7010008F0
:10005000E7010008E7010008E7010008E7010008E0
:10006000E7010008E7010008E7010008E7010008D0
:10007000E7010008E7010008E7010008E7010008C0
:10008000E7010008E7010008E7010008E7010008B0
:10009000E7010008E7010008E7010008E7010008A0
:1000A000E7010008E7010008E7010008E701000890
:1000B000E7010008E7010008E7010008E701000880
:1000C000E7010008E7010008E7010008E701000870
:1000D000E7010008190E0008E7010008850E000876
:1000E000E7010008E7010008E7010008E701000850
:1000F000E7010008E7010008E7010008E701000840
:10010000E7010008E7010008E7010008E70100082F
:10011000E7010008E7010008E7010008E70100081F
:10012000E7010008E7010008E7010008E70100080F
:1001300000F002F800F03AF80AA090E8000C8244BF
:100140008344AAF10107DA4501D100F02FF8AFF29C
:10015000090EBAE80F0013F0010F18BFFB1A43F0A5
:10016000010318477822000098220000103A24BFAB
:1001700078C878C1FAD8520724BF30C830C144BF0C
:1001800004680C607047000000230024002500264E
:10019000103A28BF78C1FBD8520728BF30C148BFEA
:1001A0000B6070471FB51FBD10B510BD00F0CFF834
:1001B0001146FFF7F7FF01F04DFB00F0EDF803B437
:1001C000FFF7F2FF03BC00F0F5F800000948804794
:1001D00009480047FEE7FEE7FEE7FEE7FEE7FEE729
:1001E000FEE7FEE7FEE7FEE704480549054A064B41
:1001F00070470000A10D000831010008080400202C
:10020000080A00200806002008060020032A40F201
:10021000308010F0030C00F0158011F8013BBCF1A8
:10022000020F624498BF11F801CB00F8013B38BFC0
:1002300011F8013BA2F1040298BF00F801CB38BFCE
:1002400000F8013B11F0030300F04F80083AC0F0C2
:10025000088051F8043B083A51F804CBA0E8081094
:10026000F5E7121D5CBF51F8043B40F8043BAFF3C7
:100270000080D20724BF11F8013B11F801CB48BF21
:1002800011F8012B24BF00F8013B00F801CB48BF57
:1002900000F8012B70474FF0000200B5134694465A
:1002A0009646203922BFA0E80C50A0E80C50B1F1CE
:1002B0002001BFF4F7AF090728BFA0E80C5048BFE2
:1002C0000CC05DF804EB890028BF40F8042B08BF80
:1002D000704748BF20F8022B11F0804F18BF00F87C
:1002E000012B704770477047704710B5203AC0F037
:1002F0000B80B1E81850203AA0E81850B1E8185027
:10030000A0E81850BFF4F5AF5FEA027C24BFB1E863
:100310001850A0E8185044BF18C918C0BDE81040D4
:100320005FEA827C24BF51F8043B40F8043B08BFDD
:100330007047D20728BF31F8023B48BF11F8012BA4
:1003400028BF20F8023B48BF00F8012B70477546D4
:1003500000F02CF8AE4605006946534620F0070031
:10036000854618B020B5FFF73FFFBDE820404FF0AD
:1003700000064FF000074FF000084FF0000B21F08F
:100380000701AC46ACE8C009ACE8C009ACE8C0095C
:10039000ACE8C0098D46704710B50446AFF3008045
:1003A0002046BDE81040FFF70ABF00000048704734
:1003B000A403002001491820ABBEFEE7260002007E
:1003C000704700BFFEE7000000B58BB00121084672
:1003D00000F0D2FB164800F067F816480090164867
:1003E0000190002002908020039000200490802043
:1003F000059000200690079008904FF480500990D7
:1004000000200A9069460A4800F0FDF80122022106
:10041000074800F0EFF8012240210648001F00F0D5
:100420006BFE0121024800F033F80BB000BD000064
:100430005800024004380140B000002030B50246A8
:100440000B464FF6FF70002110E0555C6840002419
:1004500009E000F0010525B140084AF201056840B5
:1004600000E04008641C082CF3DB491C9942ECDBDB
:1004700030BD000000F0805111B10349086001E077
:100480000249486070470000040402400000024036
:1004900021B1026842F00102026004E002684FF6F6
:1004A000FE731A400260704701684FF6FE721140F9
:1004B00001600021016041608160C1604B49884258
:1004C00008D14A490839496841F00F01474A083ABA
:1004D00051608AE045491431884208D143490839BE
:1004E000496841F0F001414A083A51607DE03F49D6
:1004F0002831884208D13D490839496841F4706182
:100500003A4A083A516070E038493C31884208D193
:1005100036490839496841F47041344A083A516013
:1005200063E032495031884208D13049083949687E
:1005300041F470212D4A083A516056E02B4964314C
:10054000884208D129490839496841F47001274A8D
:10055000083A516049E025497831884208D1234959
:100560000839496841F07061204A083A51603CE01E
:100570001F49884206D1011F096841F00F01021F7F
:10058000116032E01A491431884208D11849091F14
:10059000096841F0F001164A121F116025E0144964
:1005A0002831884208D11249091F096841F4706155
:1005B0000F4A121F116018E00D493C31884208D1E2
:1005C0000B49091F096841F47041094A121F116063
:1005D0000BE007495031884207D10549091F0968D6
:1005E00041F47021024A121F116070470800024056
:1005F000080402401AB103680B43036002E0036879
:100600008B430360704710B50022026847F6F07311
:100610009A430C6A8B6823430C6923434C69234338
:100620008C692343CC6923434C6A23438C6A23435C
:100630001A430260CB6843600B6883604B68C360F9
:1006400010BD41607047704701B5044900980860CB
:1006500000BF024800680028FBD108BD2800002028
:100660002DE9F04102460025002600200023002449
:10067000002791F803C00CF00F0591F803C00CF0AF
:10068000100CBCF1000F03D091F802C04CEA050534
:1006900091F800C0BCF1000F31D0146800202BE0AD
:1006A0004FF0010C0CFA00F3B1F800C00CEA03069D
:1006B0009E4220D183004FF00F0C0CFA03F7BC438D
:1006C00005FA03FC4CEA040491F803C0BCF1280FBE
:1006D00006D14FF0010C0CFA00FCC2F814C00AE07D
:1006E00091F803C0BCF1480F05D14FF0010C0CFA92
:1006F00000FCC2F810C0401C0828D1D31460B1F827
:1007000000C0BCF1FF0F34DD546800202EE000F182
:10071000080C4FF0010808FA0CF3B1F800C00CEA1D
:1007200003069E4221D183004FF00F0C0CFA03F711
:10073000BC4305FA03FC4CEA040491F803C0BCF185
:10074000280F05D100F1080C08FA0CF8C2F8148043
:1007500091F803C0BCF1480F07D100F1080C4FF02D
:10076000010808FA0CF8C2F81080401C0828CED303
:100770005460BDE8F08100BFFEE710B500F04CFF0B
:1007800010BD000010B500240BE00748005D0749CC
:1007900008700846007800F00BF9054800F066FE86
:1007A000641C802CF1DB10BDB00000202E00002066
:1007B0003001002000BFFEE77047000070B5002147
:1007C00000230F22C47804B3154C246804F4E064B9
:1007D000C4F5E064210AC1F10403CA40447804FA74
:1007E00003F184781440214309010E4C0678A15589
:1007F000047804F01F050124AC4005786D11AD00AC
:1008000005F1E025C5F8004109E0047804F01F0572
:100810000124AC40044D0678761145F8264070BDA1
:100820000CED00E000E400E080E100E0024901435B
:10083000024A1160704700000000FA050CED00E06C
:100840002DE9F04106460024351D99E0285DC028B9
:1008500040D012DCA52829D008DC90281ED0A02882
:1008600021D0A12820D0A22879D11EE0B02826D0FE
:10087000B12825D0B228F7D123E0D12871D006DCE9
:10088000C12828D0C22827D0D02877D12DE0D92858
:100890005AD0E02870D0F02870D16AE068783C49DE
:1008A0000870A41C6BE000BF00BF00BF29193948C5
:1008B00051F8012F026089888180E41D5FE000BF4C
:1008C00000BF2919344851F8012F026089888180BE
:1008D000E41D54E000BF00BF2919304851F8012F32
:1008E000026089888180E41D49E0611C6A5CA11C6A
:1008F000695C02EB012108B201F01EFC07462849A1
:1009000001F03CFB27490860E11C6A5C211D695C21
:1009100002EB012108B201F00FFC0746204901F06B
:100920002DFB20494860611D6A5CA11D695C02EBDA
:10093000012108B201F000FC07461B4901F01EFB33
:1009400018498860E41D1AE02919164851F8012F4A
:1009500002604A684260896881600D340FE00DE0F2
:10096000FFE72819411C10221048FFF74FFC1134F3
:1009700005E0641D03E0FFE7641D00E000BF00BF69
:10098000B6F88400A0423FF761AFBDE8F0810000F7
:100990004200002030000020360000203C000020F3
:1009A0000000C842F801002000002041040200209D
:1009B00010B504466148007807287DD2DFE800F0D2
:1009C000040A333D4D5363005A2C02D101205B4988
:1009D0000870B0E05A48006880F8884058480068BD
:1009E00090F88800A52804D0A62806D0A72818D1FA
:1009F0000FE002205149087013E05248006820B10E
:100A00004F4800684F490968884700204B490870E3
:100A100007E000204A490968086006204749087035
:100A200000BF00BF87E046480068A0F88440464801
:100A300084700320414908707DE041480068B0F8A7
:100A4000840040EA04203E490968A1F884003E4839
:100A5000C4700420394908706DE03C4804800520CA
:100A60003649087067E03948008840EA0420374971
:100A7000088000203249096808603549088006204E
:100A80002E49087057E02E48006801682C4800681D
:100A90000068401C2A4A1268106029480068001D3E
:100AA00044542748006890F88800A72813D12448A8
:100AB00000680068082800E039E00CD308202049CD
:100AC0000968A1F884001E4800681E490968884723
:100AD00000201A4908701A48006800681849096817
:100AE000B1F88410884221D31548006890F8880036
:100AF000A5281BD104221449154800F037FC1048E2
:100B0000006802680E480168091D114800F02EFCBB
:100B10000F4800880D490988884204D108480068B8
:100B200008490968884700200449087003E000204C
:100B30000249087000BF00BF002010BD5400002013
:100B40004C000020480000205500002050000020EC
:100B50005200002070B504460D46044805608C2103
:100B60002046FFF798FB0248046070BD4800002053
:100B70004C0000207047000029B1064A5269024328
:100B8000044B5A6104E0034A52698243014B5A61A3
:100B9000704700000010024029B1064AD2690243A2
:100BA000044BDA6104E0034AD2698243014BDA6103
:100BB000704700000010024029B1064A92690243C2
:100BC000044B9A6104E0034A92698243014B9A61A3
:100BD000704700000010024030B5002100220024C0
:100BE00000232D4D6D6805F00C0121B1042905D0BD
:100BF000082923D105E0294D056022E0274D056035
:100C00001FE0254D6D6805F47012234D6D6805F4E5
:100C10008034022505EB92421CB9214D55430560F5
:100C20000BE01D4D6D6805F400351DB11C4D55439D
:100C3000056002E0194D5543056002E0174D05605F
:100C400000BF00BF144D6D6805F0F0010909154D96
:100C50006B5C0568DD4045600F4D6D6805F4E06133
:100C6000090A104D6B5C4568DD4085600A4D6D6872
:100C700005F46051C90A0B4D6B5C4568DD40C560E9
:100C8000054D6D6805F44041890B074D6B5CC568E7
:100C9000B5FBF3F5056130BD0010024000127A008B
:100CA00000093D007C0000208C000020704710B53A
:100CB00000F002F810BD00000CB50020019000907B
:100CC0003348006840F480303149086000BF304844
:100CD000006800F4003000900198401C01900098DA
:100CE00018B90198B0F5A06FF1D12948006800F457
:100CF000003010B10120009001E000200090009829
:100D0000012843D12348006840F0100021490860C1
:100D10000846006820F0030008600846006840F0BC
:100D2000020008601A48406819494860084640684F
:100D300048600846406840F4806048600846406863
:100D400020F47C1048600846406840F4E810486091
:100D50000846006840F08070086000BF0C480068DA
:100D600000F000700028F9D00948406820F0030026
:100D7000074948600846406840F00200486000BFEC
:100D80000348406800F00C000828F9D10CBD0000B1
:100D9000001002400020024000B500F031F800BD14
:100DA00010B51348006840F001001149086008467A
:100DB0004068104908400E494860084600680E49DE
:100DC00008400B4908600846006820F4802008604D
:100DD0000846406820F4FE0048604FF41F00886019
:100DE000FFF765FF4FF000600449086010BD000088
:100DF000001002400000FFF8FFFFF6FE08ED00E0E3
:100E00000448006820B103480068401E014908609A
:100E1000704700002800002010B540F22441164819
:100E200000F080F938B340F22441134800F049F94A
:100E30001148001D00881048008800210F48FFF766
:100E400027FB0E485838C06DC0F180000C4908805F
:100E50004FF47020FFF70EFB00BF09480088802880
:100E6000FBDC80210548FFF7ECFB01210348FFF77D
:100E70000FFBFFF787FC10BD00380140580002400F
:100E80002C00002010B540F22551534800F04AF9DB
:100E900000287DD0504800F001FA50490870002029
:100EA0004F4908700DE04F494D480078401C095CDF
:100EB0004C484B4A1278815449480078401C4849B4
:100EC0000870474800780828EDDB44480078454919
:100ED00008720846007801282AD10846407803287D
:100EE00026D108468078042822D1084600780128B7
:100EF0001AD108464078032816D10846807804287D
:100F000012D10846C07838490870364800794870D0
:100F100034484079887033488079C8700421324859
:100F200000F06CFB3149086020212B4800F0C0F82C
:100F30002C480078022822D12A48407803281ED164
:100F40002848807804281AD126480078022812D12F
:100F50002448C07826490870224800794870214802
:100F6000407988701F488079C8700421204800F0BB
:100F7000BDF9204908602021174800F099F80821A0
:100F8000154800F0C2F850B1134800F087F900E0AE
:100F900020E01249087008210F4800F089F8042168
:100FA0000D4800F0B2F818B104210B4800F080F8A9
:100FB0000221094800F0A9F818B10221064800F002
:100FC00077F80121044800F0A0F818B10121024887
:100FD00000F06EF810BD000000480040080000203E
:100FE0001D000020900000200900002014000020B7
:100FF0000D0000201800002000B587B00121092055
:10100000FFF7DAFD01218804FFF7C6FD4FF4165003
:1010100003900020ADF81000ADF81400ADF81200F8
:10102000ADF818000C20ADF8160003A91E4800F01A
:10103000C9F8012240F225511B4800F09DF801211A
:10104000194800F04DF84FF48060ADF8040003201B
:101050008DF8060018208DF8070001A91348FFF746
:10106000FFFA4FF40060ADF8040003208DF806008D
:1010700048208DF8070001A90C48FFF7F1FA4FF45A
:101080004070FFF7D3FB27208DF8080000208DF873
:1010900009008DF80A0001208DF80B0002A8FFF767
:1010A0008DFB07B000BD000000480040000C01406F
:1010B00001F40072B2F5007F00D100BFCA43028084
:1010C000704710B50022002340F66A14A14200D1F7
:1010D00000BF0A1201249440A3B2DC43048010BD77
:1010E00021B1828942F40052828104E082894DF666
:1010F000FF731A40828170471AB1838A0B4383823F
:1011000002E0838A8B438382704702460020B1F558
:10111000007F00D100BF13880B400BB1012000E01D
:101120000020704770B502460024002300250020EF
:1011300040F66A16B14200D100BFC1F3421501F07A
:101140001F03012606FA03F3012D02D196893340CD
:1011500006E0022D02D1168A334001E0968A334020
:101160000C12012606FA04F41688344013B10CB1AF
:10117000012000E0002070BDF0B5034600240026E9
:101180000025002040F66A17B94200D100BF18467A
:10119000C1F3421401F01F06012707FA06F5012CDE
:1011A00001D10C3004E0022C01D1103000E01430E9
:1011B0001AB107682F43076002E00768AF43076072
:1011C000F0BD00002DE9F04786B005460E4600242C
:1011D000A24600BFA1460027B08900B100BF2F463C
:1011E0002C8A4CF6FF700440F08804432C82AC89B2
:1011F0004EF6F3100440B0883189084371890843E2
:101200000443AC81AC8A4FF6FF400440B0890443EC
:10121000AC8201A8FFF7E0FC1F48874202D1DDF84D
:1012200010A001E0DDF80CA0A88900F4004040B156
:101230000AEBCA0000EB0A1031684900B0FBF1F874
:1012400007E00AEBCA0000EB0A1031688900B0FB26
:10125000F1F86420B8FBF0F004012009642101FBDF
:101260001089A88900F4004040B1322000EBC90089
:10127000B0FBF1F000F00700044308E0322000EB7F
:1012800009106421B0FBF1F000F00F0004432C8141
:1012900006B0BDE8F08700000038014001468888AC
:1012A000C0F308007047C1F308028280704770B530
:1012B00006460C46154612E000BF80213046FFF777
:1012C00024FF0028F9D014F8011B3046FFF7EBFF8C
:1012D00000BF40213046FFF718FF0028F9D0281E34
:1012E000A5F10105E8D170BD00BFFEE710B50246CB
:1012F0000B460020002103E0545C44EA0020491C16
:101300009942F9DB10BD000010B5022012490870A7
:1013100006204870002088700820C87000200871DE
:101320000120487106210C48FFF788F80B49088016
:101330000846007808498871084800880012C8717A
:1013400008220748FFF7B3FF0648007806490870EF
:101350006420FFF779F910BDA40000205E00002092
:1013600000480040200000205C000020F0B503464B
:101370000C461888002113E0675C80EA07200025EE
:101380000BE0460000F4004CBCF1000F03D041F22A
:10139000210C86EA0C0630466D1C082DF1D3491C41
:1013A0009142E9D31880F0BD10B5012011490870B1
:1013B0000320487000208870C870087102204871AE
:1013C00006210C48FFF73AF80B49088008460078D8
:1013D00008498871084800880012C8710822074827
:1013E000FFF765FF06480078064908706420FFF79C
:1013F0002BF910BD990000205E000020004800403D
:10140000200000205C00002010B502201249087066
:101410000320487000208870C8700871022048714D
:1014200006210D48FFF70AF80C49088008460078A5
:1014300009498871094800880012C87108220848C3
:10144000FFF735FF074800780749087000F0F0F80B
:101450006420FFF7F9F810BDA40000205E00002012
:1014600000480040200000205C00002030B585B01E
:101470000446684600F0B8F802A800F0ABF820680F
:10148000A061A06820626068E0610398A0604C4899
:10149000049900F005FD20604A48029900F028FFF9
:1014A0006060BDF90410484200F046FE054646491A
:1014B00000F064FDE060BDF9020000F03DFE05466D
:1014C000414900F05BFD2061BDF90010484200F089
:1014D00033FE05463C4900F051FD6061A16920687A
:1014E00000F006FF0546394900F0D1FE03D8206B15
:1014F000401E20630BE0A169206800F0F9FE05465C
:10150000334900F045FE02D8206B401C20634FF4A5
:10151000B472216B01FB02F000F00EFE054621685B
:1015200000F0BEFC6062216AA06800F0E1FE0546A2
:10153000264900F0ACFE03D8A06B401EA0630BE070
:10154000216AA06800F0D4FE0546214900F020FE83
:1015500002D8A06B401CA0634FF4B472A16B01FBD6
:1015600002F000F0E9FD0546A16800F099FCE06298
:10157000E169606800F0BCFE0546144900F087FE92
:1015800003D8606B401E60630BE0E169606800F0A7
:10159000AFFE05460E4900F0FBFD02D8606B401C13
:1015A00060634FF4B472616B01FB02F000F0C4FDA4
:1015B0000546616800F074FCA06205B030BD000013
:1015C000000034430000B443000020410000A54364
:1015D0000000A5C30146034B0DCB81E80D000020A0
:1015E00070470000F80100200146034802680A60C5
:1015F00080888880002070473600002010B50246A1
:101600000B460020002103E0545C44EA0020491C02
:101610009942F9DB10BD000010B503490348FFF7FC
:1016200099FA002010BD0000410800086C0100205C
:101630002DE9F041794800687949884232D97748E4
:1016400000687849081A784908600968080B00F0B2
:101650008BFD764908607448006800F085FD0446FB
:101660004FF08B4100F08AFC70494860486800F0F8
:10167000EBFB06466E4A6F4B00F0E8FA044600F0BA
:10168000B3FA6D4908600846006800F039FD044669
:1016900000F052FD654988608868684900F06EFC7A
:1016A0006249C8605D48006800283CD05B4800681B
:1016B0005B49884237D25948006858490860084653
:1016C0000068000B5E49086008460068404200F070
:1016D00033FD564908605148006800F045FD044656
:1016E0004FF08B4100F04AFC50494860486800F0D8
:1016F000ABFB06464E4A4F4B00F0A8FA044600F0FA
:1017000073FA4D4908600846006800F0F9FC44424D
:10171000204600F011FD454988608868474900F07F
:101720002DFC4249C860474800683D49884239D984
:10173000444800683B49081A434908600846006865
:10174000000B4249086008460068404200F0F4FC83
:10175000364908613C48006800F006FD04464FF039
:101760008B4100F00BFC31494861486900F06CFB8B
:1017700006462F4A2F4B00F069FA044600F034FA6F
:10178000334908600846006800F0BAFC444220462D
:1017900000F0D2FC254988618869284900F0EEFBF9
:1017A0002249C86127480068002835D025480068CC
:1017B0001B49884230D223480068224908600968E2
:1017C000080B00F0D1FC194908611E48006800F0C0
:1017D000CBFC04464FF08B4100F0D0FB134948612D
:1017E000486900F031FB0646114A124B00F02EFA10
:1017F000044600F0F9F9164908600846006800F050
:101800007FFC044600F098FC0849886188690B4910
:1018100000F0B4FB0549C861BDE8F0811400002068
:101820008058840CFEFFFF7F64000020140200201B
:101830007D3F355EBAFD654070000020000020410C
:1018400074000020180000206800002078000020AC
:101850006C0000202D49B1F1807F01D301201DE0F3
:1018600021F07F40401E4FF0E022506150170F22C0
:10187000002807DA13071D0E254B00F00F04241F64
:101880001D5503E013071C0E224B1C5400BF002003
:101890004FF0E022906107201061002008B100BFE6
:1018A000FEE74FF4FA70FEF7CFFEFEF766FF00F09A
:1018B000E7F8FFF7A1FB00F043F9FEF785FD24E010
:1018C00015480068401C1449086008460068142840
:1018D00003DA00F061F8FFF717FD0F4800681428DD
:1018E00013DBFFF761FDFFF78FFD00F01DF800F03F
:1018F00085F8FFF79DFE094800680949884204D928
:1019000008480068401C07490860D9E740190100F1
:1019100018ED00E000E400E00400002018000020C2
:10192000FEFFFF7F0000002018480068184908608B
:1019300016488068486015480069886013488069C7
:10194000C86014480068086112484068486111483E
:10195000806888610F48C068C8610E4800690862E5
:101960000C48406948620B48806988620948C06930
:10197000C8620848006A08630648806A48630548E8
:10198000C06A88630348406AC86370471402002035
:10199000640300203001002010B5012012490870B6
:1019A00006204870002088700820C8700020087148
:1019B0000120487106210C48FEF740FD0B490880C4
:1019C0000846007808498871084800880012C871E4
:1019D00008220748FFF76BFC0648007806490870A4
:1019E0006420FEF731FE10BD990000205E0000204B
:1019F00000480040200000205C000020F8B50024D2
:101A000000255A2228466D1C1A490A54A522284648
:101A10006D1C0A5400BF0FE0174850F824000090D6
:101A2000002606E01DF8062028466D1C11490A54C0
:101A3000761C042EF6D3641C102CEDDBA62228465F
:101A40006D1C0C490A546A2228466D1C0A54002455
:101A50000CE00848015D0948FFF725FC00BF802124
:101A60000648FFF752FB0028F9D0641CAC42F0DBBB
:101A7000F8BD000064020020640300200044004020
:101A800000B587B04FF44070FEF7D0FE0121092069
:101A9000FFF792F801218803FFF78EF818208DF8E0
:101AA0000B0003208DF80A004FF48060ADF80800A9
:101AB00002A92148FEF7D4FD04208DF80B00400256
:101AC000ADF8080002A91C48FEF7CAFD4FF4E1304A
:101AD00003900020ADF81000ADF81200ADF814002E
:101AE000ADF818000C20ADF8160003A91348FFF755
:101AF00069FB012240211148FFF7FEFA01210F483E
:101B0000FFF7EEFA012240F224410C48FFF734FBC4
:101B100040210A48FFF7CCFA25208DF80400002068
:101B20008DF8050001208DF806008DF8070001A84A
:101B3000FEF744FE07B000BD000C01400038014034
:101B400000B587B001210420FFF736F801214804D1
:101B5000FFF722F80420ADF8180003208DF81A00D2
:101B600018208DF81B0006A91D48FEF779FD0820F6
:101B7000ADF8180004208DF81B0006A91848FEF7E0
:101B80006FFD26208DF8040002208DF8050003204B
:101B90008DF8060001208DF8070001A8FEF70EFE63
:101BA0004FF4E13002900020ADF80C00ADF80E00CB
:101BB000ADF81000ADF814000C20ADF8120002A929
:101BC0000848FFF7FFFA012240F225510548FFF7C8
:101BD000D3FA01210348FFF783FA07B000BD0000E4
:101BE000000801400044004021F00042A2F1605290
:101BF000B2F5801F01F0004328BFD2F17F6C0BD9F2
:101C00005FEA001C43EAC20242EB507018BF704703
:101C100028BF20F001007047B2F5801FBCBF1846F6
:101C200070474FEA410C1CF5001F02D2084600F035
:101C300029BB70B500F0B4F800000089FFF7F6BFCB
:101C40004FF00040A0F5800070470000DFF848C169
:101C500070B51CEA111E1EBF1CEA13159EEA0C0F7C
:101C600095EA0C0F00F06F8081EA030423EA4C131D
:101C70004EEAD47E21EA4C1141F4801143F48013E2
:101C8000AE44A1FB024CA0FB0365AEF17F7E36198A
:101C900055EB0C05A1FB034C4CF10003A0FB021C0F
:101CA00016EB0C06654153F10003094218BF46F0DC
:101CB000010613F4007F0BD14FEA03314FEA0530E0
:101CC000340341EA155140EA16506FF003020AE06E
:101CD0004FEAC3214FEAC520F40241EA555140EAD8
:101CE00056506FF0020202EB2E4201EB025585EADC
:101CF000CE710AD05FEA440C18BF24F0004450F1C2
:101D0000000041F1000120EAD47040F2FE7C6245FF
:101D100000D270BDA84214BF4FF080444FF0404441
:101D2000002E08BF0024BEF1806FA8BFA1F1C04102
:101D3000BDE8704080F282804FF0000001F1C041A8
:101D400001F0004170479EEA0C0F0CEA131518BF12
:101D500095EA0C0F06D04FF0000081EA030E0EF05A
:101D6000004170BD00F01CF88900013E00F007B88A
:101D700000F009B84FEA430C5FEA5C5C08D081EAE6
:101D8000030100F05BB84FEA410C5FEA5C5CF6D1FE
:101D90004FF00000014970470000FF070000F87F86
:101DA0000EF1020E2EF0030E5EF8046B364205D4DF
:101DB000012A43EB030515F5001F12D8012841EB5A
:101DC000010C1CF5001F0CD80ED14FEAD17C15F583
:101DD000001F0CEB4C0C0CF1020C08BF4CEBD37C3D
:101DE00004E04FF0080C01E04FEAD37C0CEB4C050B
:101DF00026FA05F606F00706B6F1040C06D20EEB3D
:101E0000860CBDE870404CF0010C6047DFE80CF038
:101E1000090B02024FF000414FF00000A1F5002134
:101E200070BD19461046012851EB010418BFD4F5C6
:101E3000001484BF002001F0004170BD0808A0F527
:101E400000114FEA3101704743004FEAD30C4FEACB
:101E50003C0C43401FBF40070CF1605113F0FE4F94
:101E600070471CF0006F03D100200CF00041704758
:101E70000CF0004343EA507010B540EACC0000F08B
:101E8000BBF900BF000000924FEA0001FFF7D6BF88
:101E90004FF000414FF00000A1F500217047000015
:101EA00090EA010F48BF81F0004100F12882421AF8
:101EB0003CBF801A89184FEAD0524FF07F4C1CEA81
:101EC000410FA2EBD15318BF9CEA026F00F03B8098
:101ED0004FF0004C4CEA00204CEA012121FA03FCAF
:101EE00010EB0C0C1ED202F1FF325FEA1C2040EB1B
:101EF000C25038BF70471CF07F0F4FEA400C18BF2C
:101F0000BCF17F4F38BF7047C3F12003994008BF31
:101F100020F00100BCF17F4F38BF7047A0F1C040F6
:101F200000F0B0B94FEA3C00000A40EBC25028BFB5
:101F30001CF0FF0F4FEA400CE6D018BFBCF17F4FFA
:101F400038BF7047EAE79CEA026F05D010EA5C0FE1
:101F500008BF00F00040704710B500F04DF900BF19
:101F600064FBBE3E401058BFC0F14040491058BF0E
:101F7000C1F140418142EFF3008070474FF47F0C84
:101F80001CEAD0121EBF1CEAD11392EA0C0F93EA8E
:101F90000C0F00F0858090EA010F48BF42F4807278
:101FA00040F4000C41F400002CF07F4120F07F4011
:101FB00000B58142A2EB03020FF2081CACEB504EBD
:101FC000C0F100009EF800E04FEA4E0E00FB0EFC50
:101FD00038BF49004FEA2C1C02F5FA020CFB0EF345
:101FE0004FEACE1E4FEA112C4FEAC1210EEB635E81
:101FF00042EB22420EFB0CFC4FEA1C5300FB031188
:102000004FEA112C4FEA01310EFB0CFC4FEADC4C7D
:1020100000FB0C11C14228BF09184CEB03335DF8DB
:1020200004EB10EB410143EBC250B2F57C0F38BF1B
:10203000704729D512F0F00F1CBF00F1C04000F02E
:1020400000407047008182838485868788898B8CD5
:102050008D8E8F919293959697999A9C9D9FA0A211
:10206000A3A5A7A8AAACAEB0B2B3B5B7B9BCBEC061
:10207000C2C5C7C9CCCED1D4D7D9DCDFE2E6E9EC02
:10208000F0F3F7FAFE0000004FEA400C0CF1807C00
:10209000BCF17E4F28BF7047B0F1C04000F0F2B8ED
:1020A00090EA010F0CEAD11348BF42F480726245F6
:1020B00038BF634507D213F47F0F16D080EA0100C2
:1020C00000F00040704710B500F096F8097EFC3E25
:1020D00000F005B880EA010000F00040704780EA97
:1020E000010000F0004000F0CDB812F47F0F04BFF3
:1020F0000248704780EA010000F0C4B80000C07FC9
:1021000041000B0ED3F19E0208D950F400034FEAB0
:10211000032323FA02F048BF4042704710B500F095
:102120006BF800BF49922480002070476FF0004296
:1021300082EA20007047000010F0004148BF404292
:10214000B0FA80F310FA03F2C3F19D030BD051EA09
:10215000C35101EB1220530638BF704700F1010054
:1021600008BF20F001007047B0FA80F310FA03F2C4
:10217000C3F19D030AD0D90501EB1220530638BFE5
:10218000704700F1010008BF20F001007047000017
:1021900050EA010C00F113801CF5000F58BFBCF58C
:1021A000000F01D48842704707D710F5000F58BFC1
:1021B00011F5000F15D488427047894270471CF50D
:1021C000000F04D5BCF5000FF7D5814270474FF0E2
:1021D000807C1CEB400F38BF1CEB410F01D28142C9
:1021E000704710B500F008F8922449004FF00050F5
:1021F0004FF08051FFF7B6BE0EF1020E2EF0030E27
:102200005EF8044B244204D44FEA4102B2F17F4FFE
:1022100011D84FEA4003B3F17F4F0CD80ED14FEAEB
:10222000D07CB2F17F4F0CEB4C0C0CF1020C08BFD0
:102230004CEBD17C04E04FF0080C01E04FEAD17C7C
:102240000CEB4C0324FA03F404F00704B4F1040C7F
:1022500006D20EEB840CBDE810404CF0010C604738
:10226000DFE80CF0070802024FF00040A0F5800004
:1022700010BD0846420018BFD2F1807288BF00F03E
:10228000004010BDFF2141EAD050C005704751EA1F
:10229000000C00F113801CF5000F58BFBCF5000FB7
:1022A00001D48142704707D711F5000F58BF10F5D0
:1022B000000F15D481427047894270471CF5000F0A
:1022C00004D5BCF5000FF7D5884270474FF0807CED
:1022D0001CEB410F38BF1CEB400F01D28842704706
:1022E00080EA010081EA000180EA0100FFF779BF7E
:1022F00090EA010F48BF81F000413FF5D8AD421A86
:1023000004D882F00042A0EB020011444FEAD05200
:102310004FF07F4C1CEA410FA2EBD15318BF9CEA4F
:10232000026F4AD04FF0004C4CEA00204CEA0121E9
:1023300021FA03FCB0EB0C0C0FD412F0FE0F36D0D8
:102340005FEA4C001DD5001240EBC25038BF704709
:102350001CF03F0F18BF70470BE0A2F101025FEACB
:102360001C2040EBC25038BF70471CF07F0F18BFD5
:102370007047C3F12003994014BF401E20F00100B4
:10238000704780084FEA122308BF7047B0FA80FCFC
:10239000A2EB0C02CCF1280C60FA0CF093EA122F9D
:1023A00004BF00EBC25070474FEAC3707047130A76
:1023B0005FEADC1008BF7047F6E79CEA026F04D0C2
:1023C00010EA5C0F08BF0020704710B5FFF714FF3C
:1023D00040DFF63E81F0004070470000FC2300081B
:1023E00000000020900000006C0100088C24000810
:1023F000900000207809000088010008000000001B
:1024000000000000000000000000000000000000CC
:1024100000000000000000000000000000000000BC
:1024200000000000000000000000000000000000AC
:10243000000000000000000000000000000000009C
:10244000000000000000000000000000000000008C
:10245000005AA5000000000000000000000000007D
:10246000000000000000000000000000000000006C
:102470000000000000000000000000000102030452
:0C24800001020304060708090204060814
:04000005080001CD21
:00000001FF
